S01400004430303033455F4C61625F312E73726563C6
S11300000C942E000C9438000C9438000C94380096
S11300100C9438000C9438000C9438000C9438007C
S11300200C9438000C9438000C9438000C9438006C
S11300300C9438000C9438000C9438000C9438005C
S11300400C9438000C9438000C9438000C9438004C
S11300500C9438000C9438000C94380011241FBE02
S1130060CFEFD4E0DEBFCDBF0E9465000C947000DA
S11300700C94000080EC8093E40087EB8093E5000F
S113008087E08093E6008FE08093E700089584E0A2
S1130090809381001092850010928400089520912D
S11300A084003091850029513648E4E8F0E0AFEE51
S11300B0B0E041E08081918182179307D9F78C9158
S11300C084278C9329513648F5CFE1E6F0E080E8A7
S11300D0808310820E943A000E9447000E944F00D1
S10700E0F894FFCFBE
S9030000FC
