:100000000C942E000C9438000C9438000C9438009A
:100010000C9438000C9438000C9438000C94380080
:100020000C9438000C9438000C9438000C94380070
:100030000C9438000C9438000C9438000C94380060
:100040000C9438000C9438000C9438000C94380050
:100050000C9438000C9438000C94380011241FBE06
:10006000CFEFD4E0DEBFCDBF0E94E4020C941D03AD
:100070000C940000CF93DF93CDB7DEB764970FB633
:10008000F894DEBF0FBECDBF21E535E13A83298369
:1000900020E131E03C832B8321EE31E13E832D834F
:1000A00021EB31E138872F8320EB35E03A87298730
:1000B00021EB34E13C872B8721EF34E13E872D870C
:1000C00020E131E1388B2F8721EF35E13A8B298B05
:1000D00020EB35E13C8B2B8BE82FF0E0F097EE0F17
:1000E000FF1FEC0FFD1F8181928164960FB6F8947B
:1000F000DEBF0FBECDBFDF91CF91089580EC80931E
:10010000E40087EB8093E50087E08093E6008FE0D2
:100110008093E700089590ED980F9A3010F40C94B6
:100120003A0080E090E00895CF93DF936630710548
:10013000A8F5EB0190ED980F9A3098F50E943A00DF
:10014000BC01472F9C01329522952F7023273F70C9
:100150002327962FC230D10560F1FE0132973297E6
:10016000B8F1EEEEF0E0C0FD28C0572F52955F7059
:100170004F70822F8F70392F3F7090EF208129238D
:10018000252B208325812923242B258322852923A0
:10019000282B228787859823932B9787DF91CF91F0
:1001A000089590E020E040E060E070E0C230D105CA
:1001B000A0F6ECEEF0E0C0FFD8CF542F507F422FD6
:1001C000407F892F807F392F3295307F9FE0D6CFB7
:1001D000EDEEF0E0C8CF8F929F92AF92BF92CF9298
:1001E000DF92EF92FF920F931F93CF93DF93CDB7E0
:1001F000DEB76F970FB6F894DEBF0FBECDBF9E017E
:100200002F5F3F4F79016E0130E2C30ED11C870191
:100210002AE0822E912CA12CB12C03C0CE16DF0631
:1002200079F0A50194010E94FB02605DF8016193E1
:100230008F01B901CA01611571058105910571F739
:1002400015E0612F70E0F70181917F010E94940019
:100250001150B8F76F960FB6F894DEBF0FBECDBF42
:10026000DF91CF911F910F91FF90EF90DF90CF9092
:10027000BF90AF909F908F9008954F925F926F9232
:100280007F928F929F92AF92BF92CF92DF92EF9226
:10029000FF922B013C014B015C0197FD3FC0B594DF
:1002A000A7949794879482E088169104A104B104DE
:1002B000D8F140FE25C092E0C92ED12CE12CF12CC2
:1002C0000AC0C301B201A70196010E94FB02672B7D
:1002D000682B692BA9F08FEFC81AD80AE80AF80A28
:1002E0008C149D04AE04BF0460F78FEF881A980A3F
:1002F000A80AB80A81E08C149D04AE04BF0409F07A
:1003000080E0FF90EF90DF90CF90BF90AF909F90F4
:100310008F907F906F905F904F9008958FEF881A25
:10032000980AA80AB80ABBCF82E0C82ED12CE12CCB
:10033000F12CDBCFCF93DF9300D000D0CDB7DEB769
:100340002B013C0153014201D301C2010196A11DC1
:10035000B11D89839A83AB83BC8377FC39C0B59484
:10036000A7949794879492E089169104A104B1040C
:1003700090F140FE28C092E0C92ED12CE12CF12C46
:100380000AC0C301B201A70196010E94FB02672BBC
:10039000682B692BC1F0AFEFCA1ADA0AEA0AFA0A27
:1003A0008C149D04AE04BF0460F7BFEF8B1A9B0A48
:1003B000AB0ABB0A8C149D04AE04BF0421F4C30134
:1003C000B2010E94EB0049805A806B807C80BACFDA
:1003D0004C015D01C4CF82E0C82ED12CE12CF12C60
:1003E000E4CF84E080938100109285001092840015
:1003F000089540918400509185004951564861E02C
:1004000080918400909185009A01281B390B293333
:100410003140B0F72091EF0026272093EF00AC0188
:1004200049515648EDCF80E885B9089520E090E025
:1004300044E032E083B1881F8827881F11F42130FF
:1004400049F0992349F03093ED001092EC0091E0CF
:10045000282FF0CF9923B9F31092ED004093EC00D0
:1004600090E0282FE7CF4F925F926F927F928F920A
:100470009F92AF92BF92CF92DF92EF92FF922C01A8
:10048000612C712C53014201B594A79497948794E1
:1004900022E082169104A104B1040CF443C080FF51
:1004A00024C092E0C92ED12CE12CF12C0AC0C3014A
:1004B000B201A70196010E94FB02672B682B692BF2
:1004C000A1F08FEFC81AD80AE80AF80A8C149D0424
:1004D000AE04BF0460F72FEF821A920AA20AB20A92
:1004E0008C149D04AE04BF0469F0FF90EF90DF9080
:1004F000CF90BF90AF909F908F907F906F905F90C4
:100500004F900895C301B201FF90EF90DF90CF901C
:10051000BF90AF909F908F907F906F905F904F9023
:100520000C94EB0082E0C82ED12CE12CF12CD3CF1F
:10053000DB012D913C91DC01ED91FC912E1B3F0BD9
:1005400021333C4088F43091EF0021E023272093B1
:10055000EF00FC0120813181DA018D919C91820FA5
:10056000931FFB01918380830895FC0193B1991F30
:100570009927991F19F480818130E9F09083FB015C
:10058000808181110CC09091ED0082E089278093D9
:10059000ED008091EC0084608093EC0008958091E0
:1005A000ED0082608093ED009091EC0084E089275B
:1005B0008093EC000895DB012C91222311F01C9212
:1005C000DDCFDB018C93DACFE1E6F0E080E88083D9
:1005D000108280EC8093E40087EB8093E50087E055
:1005E0008093E6008FE08093E70061E070E080E0B8
:1005F00090E00E949A01A1E21A2EAA1BBB1BFD01EA
:100600000DC0AA1FBB1FEE1FFF1FA217B307E407F1
:10061000F50720F0A21BB30BE40BF50B661F771F49
:10062000881F991F1A9469F7609570958095909529
:0E0630009B01AC01BD01CF010895F894FFCFEE
:00000001FF
