:100000000C942E000C9438000C9438000C9438009A
:100010000C9438000C9438000C9438000C94380080
:100020000C9438000C9438000C9438000C94380070
:100030000C9438000C9438000C9438000C94380060
:100040000C9438000C9438000C9438000C94380050
:100050000C9438000C9438000C94380011241FBE06
:10006000CFEFD4E0DEBFCDBF0E94FA030C9486042C
:100070000C94000080EC8093E40087EB8093E50013
:1000800087E08093E6008FE08093E7000895803357
:10009000C1F08133C9F08233D1F0833379F08433F6
:1000A000C9F08533D1F08633D9F08733E1F0883356
:1000B000E9F08933F1F080E090E0089581EB91E17F
:1000C000089581E595E1089580E191E0089581EE3C
:1000D00091E1089580EB95E0089581EB94E1089516
:1000E00081EF94E1089580E191E1089581EF95E138
:1000F000089580EB95E108950F931F93CF93DF93BD
:10010000EB010E944700AC0160E070E02097C1F075
:10011000C130D10509F445C0C230D10509F491C000
:10012000C330D10509F4BAC0C430D10509F4DDC02B
:10013000259709F45FC0DF91CF911F910F9108952A
:100140009091EC008A019B01ECE03695279517957C
:100150000795EA95D1F7907F092B0093EC009091D9
:10016000F100252F2F70907F922B9093F1009091AA
:10017000F600F4E07695679557954795FA95D1F78F
:100180004F70907F492B4093F6009091FB008F7049
:10019000907F892B8093FB00DF91CF911F910F916E
:1001A00008959091EC00252F207F9F70922B9093C3
:1001B000EC009091F100D4E07695679557954795BE
:1001C000DA95D1F7407F9F70492B4093F1009091D1
:1001D000F600982B9F609093F6009091FB0082951B
:1001E000807F9F60892B8093FB00DF91CF911F91CF
:1001F0000F9108959091EE00252F207F9F70922BF4
:100200009093EE009091F30024E0769567955795D2
:1002100047952A95D1F7407F9F70492B4093F30073
:100220009091F800282F207F9F70922B9093F800D8
:100230009091FD008295807F9F70892B8093FD00B7
:100240007ACF9091ED008A019B01BCE0369527950D
:1002500017950795BA95D1F7907F092B0093ED007C
:100260009091F200252F2F70907F922B9093F200A7
:100270009091F700C4E07695679557954795CA9594
:10028000D1F74F70907F492B4093F7009091FC007D
:100290008F70907F892B8093FC004DCF9091ED0063
:1002A000252F207F9F70922B9093ED009091F2006C
:1002B000A4E07695679557954795AA95D1F7407F25
:1002C0009F70492B4093F2009091F700282F207FD8
:1002D0009F70922B9093F7009091FC008295807F05
:1002E0009F70892B8093FC0026CF9091EE008A01AD
:1002F0009B01ECE03695279517950795EA95D1F780
:10030000907F092B0093EE009091F300252F2F7022
:10031000907F922B9093F3009091F800F4E0769503
:10032000679557954795FA95D1F74F70907F492B70
:100330004093F8009091FD008F70907F892B8093FF
:10034000FD00F9CE8F929F92AF92BF92CF92DF9233
:10035000EF92FF920F931F93CF93DF93CDB7DEB74A
:100360006F970FB6F894DEBF0FBECDBF9E012F5F13
:100370003F4F79016E0130E2C30ED11C87012AE0A4
:10038000822E912CA12CB12C03C0CE16DF0679F061
:10039000A50194010E944504605DF80161938F01FD
:1003A000B901CA01161617061806190674F305E0F6
:1003B00010E0B801F70181917F010E947C0001509B
:1003C0001109B8F76F960FB6F894DEBF0FBECDBF18
:1003D000DF91CF911F910F91FF90EF90DF90CF9021
:1003E000BF90AF909F908F9008954F925F926F92C1
:1003F0007F928F929F92AF92BF92CF92DF92EF92B5
:10040000FF922B013C014B015C0197FD4AC0B59462
:10041000A7949794879482E088169104A104B1046C
:100420000CF450C0D301C20181709927AA27B0787B
:10043000B7FD3DC0892B8A2B8B2B29F183E0C82E79
:10044000D12CE12CF12C0DC08FEFC81AD80AE80A84
:10045000F80AC301B2010E944504672B682B692B7F
:1004600091F0A70196018C149D04AE04BF0464F7BB
:100470008FEF881A980AA80AB80A81E082169306B4
:10048000A406B50609F080E0FF90EF90DF90CF90D2
:10049000BF90AF909F908F907F906F905F904F90A4
:1004A00008958FEF881A980AA80AB80AB0CF019762
:1004B000A109B1098E6F9F6FAF6FBF6F0196A11D2C
:1004C000B11DB8CF22E030E040E050E0D1CFCF9373
:1004D000DF9300D000D0CDB7DEB72B013C01530134
:1004E0004201D301C2010196A11DB11D89839A83E6
:1004F000AB83BC8377FC44C0B594A794979487944E
:1005000092E089169104A104B1040CF447C0D30110
:10051000C20181709927AA27B078B7FD34C0892B12
:100520008A2B8B2B41F183E0C82ED12CE12CF12CAE
:100530000DC0AFEFCA1ADA0AEA0AFA0AC301B20119
:100540000E944504672B682B692BA9F0A70196012F
:100550008C149D04AE04BF0464F7BFEF8B1A9B0A92
:10056000AB0ABB0A82169306A406B50621F4C301A2
:10057000B2010E94A20149805A806B807C80AFCF7B
:100580004C015D01B9CF0197A109B1098E6F9F6F31
:10059000AF6FBF6F0196A11DB11DC1CF22E030E04A
:1005A00040E050E0DACF84E0809381001092850033
:1005B000109284000895809184009091850020918C
:1005C0008400309185002951364841E080918400B3
:1005D00090918500B901681B790BCB01893391405B
:1005E000A8F78091EF0084278093EF00209184008A
:1005F0003091850029513648E9CF80E885B90895C2
:1006000030E090E054E042E083B1881F8827881FE3
:10061000282F2170811112C0332381F0992381F09A
:100620001092ED005093EC0090E0322F83B1881FC0
:100630008827881F282F2170882371F3992381F33D
:100640004093ED001092EC0091E0322FEFCF4F92EB
:100650005F926F927F928F929F92AF92BF92CF9252
:10066000DF92EF92FF922B013C014B015C0197FD61
:1006700058C0B594A7949794879482E08816910403
:10068000A104B1040CF45EC0D301C20181709927AA
:10069000AA27B078B7FD4BC0892B8A2B8B2B21F171
:1006A00083E0C82ED12CE12CF12C0DC08FEFC81A9D
:1006B000D80AE80AF80AC301B2010E944504672B70
:1006C000682B692B89F0A70196018C149D04AE0458
:1006D000BF0464F78FEF881A980AA80AB80A82162E
:1006E0009306A406B50669F0FF90EF90DF90CF90D7
:1006F000BF90AF909F908F907F906F905F904F9042
:100700000895C301B201FF90EF90DF90CF90BF90AA
:10071000AF909F908F907F906F905F904F900C94D0
:10072000A2018FEF881A980AA80AB80AA2CF0197E7
:10073000A109B1098E6F9F6FAF6FBF6F0196A11DA9
:10074000B11DAACF22E030E040E050E0C3CFFB0172
:1007500020813181FC0180819181F901E81BF90B35
:10076000CF018933914090F49091EF0081E0892787
:100770008093EF008091840090918500FA012081A0
:100780003181820F931FFB01918380830895FC01C7
:1007900093B1991F9927991F21F4DB018C91811145
:1007A00011C0DB019C938081811115C09091ED00F7
:1007B00082E089278093ED008091EC008460809333
:1007C000EC0008958081882391F01082DB019C93D6
:1007D0008081882359F38091ED0082608093ED0041
:1007E0009091EC0084E089278093EC00089581E0EB
:1007F0008083D7CFCF93DF9300D0CDB7DEB780E82B
:10080000809361001092610080EC8093E40087EB9C
:100810008093E50087E08093E6008FE08093E70017
:100820001A8219820091840010918500095116489E
:10083000C12CD12C7601BB24B39410C0BE016F5FD4
:100840007F4FCE0102960E94C703C701B6010E94E6
:1008500027038FEFC81AD80AE80AF80A80918400A3
:10086000909185009801281B390BC901893391406B
:1008700028F78091EF008B258093EF000091840092
:100880001091850009511648D9CF052E97FB1EF40B
:1008900000940E945C0457FD07D00E94640407FC8A
:1008A00003D04EF40C945C045095409530952195FE
:1008B0003F4F4F4F5F4F089590958095709561958C
:1008C0007F4F8F4F9F4F0895A1E21A2EAA1BBB1B8B
:1008D000FD010DC0AA1FBB1FEE1FFF1FA217B3070C
:1008E000E407F50720F0A21BB30BE40BF50B661F22
:1008F000771F881F991F1A9469F7609570958095E6
:1009000090959B01AC01BD01CF010895F894FFCFF4
:00000001FF
