:100000000C942E000C9438000C9438000C9438009A
:100010000C9438000C9438000C9438000C94380080
:100020000C9438000C9438000C9438000C94380070
:100030000C9438000C9438000C9438000C94380060
:100040000C9438000C9438000C9438000C94380050
:100050000C9438000C9438000C94380011241FBE06
:10006000CFEFD4E0DEBFCDBF0E947C020C94C9026A
:100070000C94000080EC8093E40087EB8093E50013
:1000800087E08093E6008FE08093E7000895CF93A8
:10009000DF93CDB7DEB764970FB6F894DEBF0FBE1F
:1000A000CDBF21E535E13A83298320E131E03C836E
:1000B0002B8321EE31E13E832D8321EB31E1388723
:1000C0002F8320EB35E03A87298721EB34E13C8709
:1000D0002B8721EF34E13E872D8720E131E1388BFA
:1000E0002F8721EF35E13A8B298B20EB35E13C8BD3
:1000F0002B8BE82FF0E0F097EE0FFF1FEC0FFD1FAA
:100100008181928164960FB6F894DEBF0FBECDBF99
:10011000DF91CF910895CF93DF93CDB7DEB764978A
:100120000FB6F894DEBF0FBECDBF6630710508F084
:1001300061C021E535E13A83298320E131E03C8348
:100140002B8321EE31E13E832D8321EB31E1388792
:100150002F8320EB35E03A87298721EB34E13C8778
:100160002B8721EF34E13E872D8720E131E1388B69
:100170002F8721EF35E13A8B298B20EB35E13C8B42
:100180002B8BE82FF0E0F097EE0FFF1FEC0FFD1F19
:10019000818192816230710508F446C09B01225032
:1001A00031092230310508F442C0EEEEF0E0592F5B
:1001B00060FD29C052955F70492F4F709C013295A8
:1001C00022952F7023273F702327322F3F70982FBF
:1001D0009F7080EF20812823252B208325812823D1
:1001E000242B258322852823232B228727858223DE
:1001F000892B878764960FB6F894DEBF0FBECDBFFC
:10020000DF91CF910895507F9C01329522952F70F8
:1002100023273F702327422F407F382F307F982F8E
:100220009295907F8FE0D6CFECEEF0E0C0CFEDEE70
:10023000F0E0BDCF8F929F92AF92BF92CF92DF92AC
:10024000EF92FF920F931F93CF93DF93CDB7DEB75B
:100250006F970FB6F894DEBF0FBECDBF9E012F5F24
:100260003F4F79016E0130E2C30ED11C87012AE0B5
:10027000822E912CA12CB12C03C0CE16DF0679F072
:10028000A50194010E94A702605DF80161938F01AE
:10029000B901CA01611571058105910571F715E074
:1002A000612F70E0F70181917F010E948B00115056
:1002B000B8F76F960FB6F894DEBF0FBECDBFDF91D3
:1002C000CF911F910F91FF90EF90DF90CF90BF9053
:1002D000AF909F908F900895CF93DF93EC01FC0136
:1002E000F695E795E230F105C8F0C0FF13C022E0B3
:1002F00030E006C0CE01B9010E949302892B51F073
:100300002F5F3F4FE217F307A8F7319681E0E2171E
:10031000F30709F080E0DF91CF91089522E030E00B
:10032000F4CF6B017C01E601F601F695E795E2302A
:10033000F10538F1C60181709927892BB1F022E0CF
:1003400030E006C0CE01B9010E949302892B69F00A
:100350002F5F3F4FE217F307A8F73196E217F30735
:1003600021F4C701B6010E941A018FEFC81AD80AFA
:10037000E80AF80AE601F601F695E795E230F1059C
:10038000C8F622E030E0E9CF84E08093810010924B
:10039000850010928400089540918400509185005A
:1003A0004951564861E080918400909185009A01FE
:1003B000281B390B29333140B0F72091EF00262755
:1003C0002093EF00AC0149515648EDCF80E885B944
:1003D000089520E090E044E032E083B1881F882750
:1003E000881F11F4213049F0992349F03093ED0032
:1003F0001092EC0091E0282FF0CF9923B9F31092DE
:10040000ED004093EC0090E0282FE7CFCF93DF93EF
:10041000FC01EC01D695C795C230D105F0F0E0FFA4
:1004200012C022E030E006C0CF01B9010E94930261
:10043000892B49F02F5F3F4FC217D307A8F72196AA
:10044000C217D30719F0DF91CF910895BF0180E063
:1004500090E0DF91CF910C941A0122E030E0EFCFD1
:10046000DB012D913C91DC01ED91FC912E1B3F0BAA
:1004700021333C4088F43091EF0021E02327209382
:10048000EF00FC0120813181DA018D919C91820F76
:10049000931FFB01918380830895FC0193B1991F01
:1004A0009927991F19F480818130E9F09083FB012D
:1004B000808181110CC09091ED0082E089278093AA
:1004C000ED008091EC0084608093EC0008958091B1
:1004D000ED0082608093ED009091EC0084E089272C
:1004E0008093EC000895DB012C91222311F01C92E3
:1004F000DDCFDB018C93DACFE1E6F0E080E88083AA
:10050000108280EC8093E40087EB8093E50087E025
:100510008093E6008FE08093E70061E070E080E088
:1005200090E00E949101AA1BBB1B51E107C0AA1FCA
:10053000BB1FA617B70710F0A61BB70B881F991F84
:100540005A95A9F780959095BC01CD010895A1E237
:100550001A2EAA1BBB1BFD010DC0AA1FBB1FEE1F3D
:10056000FF1FA217B307E407F50720F0A21BB30B88
:10057000E40BF50B661F771F881F991F1A9469F704
:1005800060957095809590959B01AC01BD01CF0160
:060590000895F894FFCF6E
:00000001FF
