:100000000C942E000C9438000C9438000C9438009A
:100010000C9438000C9438000C9438000C94380080
:100020000C9438000C9438000C9438000C94380070
:100030000C9438000C9438000C9438000C94380060
:100040000C9438000C9438000C9438000C94380050
:100050000C9438000C9438000C94380011241FBE06
:10006000CFEFD4E0DEBFCDBF0E94F5010C944E026D
:100070000C94000080EC8093E40087EB8093E50013
:1000800087E08093E6008FE08093E7000895803357
:10009000C1F08133C9F08233D1F0833379F08433F6
:1000A000C9F08533D1F08633D9F08733E1F0883356
:1000B000E9F08933F1F080E090E0089581EB91E17F
:1000C000089581E595E1089580E191E0089581EE3C
:1000D00091E1089580EB95E0089581EB94E1089516
:1000E00081EF94E1089580E191E1089581EF95E138
:1000F000089580EB95E108950F931F93CF93DF93BD
:10010000EB010E944700AC0160E070E02097C1F075
:10011000C130D10509F445C0C230D10509F491C000
:10012000C330D10509F4BAC0C430D10509F4DDC02B
:10013000259709F45FC0DF91CF911F910F9108952A
:100140009091EC008A019B01ECE03695279517957C
:100150000795EA95D1F7907F092B0093EC009091D9
:10016000F100252F2F70907F922B9093F1009091AA
:10017000F600F4E07695679557954795FA95D1F78F
:100180004F70907F492B4093F6009091FB008F7049
:10019000907F892B8093FB00DF91CF911F910F916E
:1001A00008959091EC00252F207F9F70922B9093C3
:1001B000EC009091F100D4E07695679557954795BE
:1001C000DA95D1F7407F9F70492B4093F1009091D1
:1001D000F600982B9F609093F6009091FB0082951B
:1001E000807F9F60892B8093FB00DF91CF911F91CF
:1001F0000F9108959091EE00252F207F9F70922BF4
:100200009093EE009091F30024E0769567955795D2
:1002100047952A95D1F7407F9F70492B4093F30073
:100220009091F800282F207F9F70922B9093F800D8
:100230009091FD008295807F9F70892B8093FD00B7
:100240007ACF9091ED008A019B01BCE0369527950D
:1002500017950795BA95D1F7907F092B0093ED007C
:100260009091F200252F2F70907F922B9093F200A7
:100270009091F700C4E07695679557954795CA9594
:10028000D1F74F70907F492B4093F7009091FC007D
:100290008F70907F892B8093FC004DCF9091ED0063
:1002A000252F207F9F70922B9093ED009091F2006C
:1002B000A4E07695679557954795AA95D1F7407F25
:1002C0009F70492B4093F2009091F700282F207FD8
:1002D0009F70922B9093F7009091FC008295807F05
:1002E0009F70892B8093FC0026CF9091EE008A01AD
:1002F0009B01ECE03695279517950795EA95D1F780
:10030000907F092B0093EE009091F300252F2F7022
:10031000907F922B9093F3009091F800F4E0769503
:10032000679557954795FA95D1F74F70907F492B70
:100330004093F8009091FD008F70907F892B8093FF
:10034000FD00F9CE8F929F92AF92BF92CF92DF9233
:10035000EF92FF920F931F93CF93DF93CDB7DEB74A
:100360006F970FB6F894DEBF0FBECDBF9E012F5F13
:100370003F4F79016E0130E2C30ED11C87012AE0A4
:10038000822E912CA12CB12C03C0CE16DF0679F061
:10039000A50194010E940D02605DF80161938F0137
:1003A000B901CA01161617061806190674F305E0F6
:1003B00010E0B801F70181917F010E947C0001509B
:1003C0001109B8F76F960FB6F894DEBF0FBECDBF18
:1003D000DF91CF911F910F91FF90EF90DF90CF9021
:1003E000BF90AF909F908F90089580E880936100B8
:1003F0001092610080EC8093E40087EB8093E5002D
:1004000087E08093E6008FE08093E70060E472EE7F
:1004100081E090E00E94A201FFCF052E97FB1EF421
:1004200000940E94240257FD07D00E942C0207FC72
:1004300003D04EF40C9424025095409530952195AC
:100440003F4F4F4F5F4F0895909580957095619500
:100450007F4F8F4F9F4F0895A1E21A2EAA1BBB1BFF
:10046000FD010DC0AA1FBB1FEE1FFF1FA217B30780
:10047000E407F50720F0A21BB30BE40BF50B661F96
:10048000771F881F991F1A9469F76095709580955A
:1004900090959B01AC01BD01CF010895F894FFCF69
:00000001FF
