:100000000C942E000C9438000C9438000C9438009A
:100010000C9438000C9438000C9438000C94380080
:100020000C9438000C9438000C9438000C94380070
:100030000C9438000C9438000C9438000C94380060
:100040000C9438000C9438000C9438000C94380050
:100050000C9438000C9438000C94380011241FBE06
:10006000CFEFD4E0DEBFCDBF0E94DC020C944D0385
:100070000C94000080EC8093E40087EB8093E50013
:1000800087E08093E6008FE08093E7000895803357
:10009000C1F0813399F08233B9F08333C1F08433F6
:1000A000E1F08533B9F08633D9F08733E1F0883356
:1000B000E9F08933F1F080E090E0089580E191E08B
:1000C000089581E595E1089581EE91E1089581EB30
:1000D00091E1089581EB94E1089580EB95E0089516
:1000E00081EF94E1089580E191E1089581EF95E138
:1000F000089580EB95E10895CF93C62F0E944700A5
:10010000CC2381F0C130B9F1C23009F483C0C330CF
:1001100009F4A8C0C43009F4CDC0C53009F452C0F8
:10012000CF9108952091EC00392F32953F70207FB8
:10013000232B2093EC002091F100392F3F70207F7A
:10014000232B2093F1002091F600AC0152954295AB
:100150004F7045275F7045274F70922F907F942BEB
:100160009093F6009091FB008F70907F892B809385
:10017000FB00CF9108952091EC00392F307F2F7034
:10018000232B2093EC002091F100AC015295429575
:100190004F7045275F704527407F922F9F70942BAB
:1001A0009093F1009091F600982B9F609093F60049
:1001B0009091FB008295807F9F60892B8093FB004C
:1001C000CF9108952091EE00392F307F2F70232B8F
:1001D0002093EE002091F300AC01529542954F70B0
:1001E00045275F704527407F922F9F70942B9093F7
:1001F000F3009091F800282F207F9F70922B90930E
:10020000F8009091FD008295807F9F70892B8093EC
:10021000FD0086CF2091ED00392F32953F70207F71
:10022000232B2093ED002091F200392F3F70207F87
:10023000232B2093F2002091F700AC0152954295B8
:100240004F7045275F7045274F70922F907F942BFA
:100250009093F7009091FC008F70907F892B809392
:10026000FC005ECF2091ED00392F307F2F70232BC3
:100270002093ED002091F200AC01529542954F7011
:1002800045275F704527407F922F9F70942B909356
:10029000F2009091F700282F207F9F70922B90936F
:1002A000F7009091FC008295807F9F70892B80934E
:1002B000FC0036CF2091EE00392F32953F70207F21
:1002C000232B2093EE002091F300392F3F70207FE5
:1002D000232B2093F3002091F800AC015295429516
:1002E0004F7045275F7045274F70922F907F942B5A
:1002F0009093F8009091FD008F70907F892B8093F0
:10030000FD000ECFEF92FF920F931F93CF93DF93D9
:10031000CDB7DEB76F970FB6F894DEBF0FBECDBF77
:10032000AC018E010F5F1F4F7E0180E2E80EF11CD1
:10033000F80103C0EE16FF06F1F09A01ADECBCEC3B
:100340000E943E03969587959695879596958795F5
:10035000BC01660F771F9C01220F331F220F331F32
:10036000220F331F260F371F421B530B405D419353
:10037000AC01892BF9F685E0F82E6F2DF8018191FB
:100380008F010E947C00FA94FFEFFF12F6CF6F9668
:100390000FB6F894DEBF0FBECDBFDF91CF911F9196
:1003A0000F91FF90EF900895CF93DF93EC01FC0144
:1003B000F695E795E230F105C8F0C0FF13C022E0E2
:1003C00030E006C0CE01B9010E942A03892B51F00A
:1003D0002F5F3F4FE217F307A8F7319681E0E2174E
:1003E000F30709F080E0DF91CF91089522E030E03B
:1003F000F4CFEC01FE01F695E795E230F105D8F077
:10040000C0FF12C022E030E006C0CE01B9010E9458
:100410002A03892B49F02F5F3F4FE217F307A8F714
:100420003196E217F30769F02196FE01F695E795FC
:10043000E230F10528F722E030E03196E217F307C9
:1004400099F7CE010E9482012196EFCF84E080933C
:1004500081001092850010928400089540918400DC
:10046000509185004951564861E0809184009091F7
:1004700085009A01281B390B29333140B0F72091B0
:10048000EF0026272093EF00AC0149515648EDCFED
:1004900080E885B9089520E090E044E032E083B13F
:1004A000881F8827881F11F4213049F0992349F0CB
:1004B0003093ED001092EC0091E0282FF0CF9923BB
:1004C000B9F31092ED004093EC0090E0282FE7CFB5
:1004D000CF93DF93EC01FC01F695E795E230F1054F
:1004E000E0F0C0FF12C022E030E006C0CE01B9014A
:1004F0000E942A03892B49F02F5F3F4FE217F30731
:10050000A8F73196E217F30719F0DF91CF9108951C
:10051000CE01DF91CF910C94820122E030E0F1CF47
:10052000DB012D913C91DC01ED91FC912E1B3F0BE9
:1005300021333C4088F43091EF0021E023272093C1
:10054000EF00FC0120813181DA018D919C91820FB5
:10055000931FFB01918380830895FC0193B1991F40
:100560009927991F19F480818130E9F09083FB016C
:10057000808181110CC09091ED0082E089278093E9
:10058000ED008091EC0084608093EC0008958091F0
:10059000ED0082608093ED009091EC0084E089276B
:1005A0008093EC000895DB012C91222311F01C9222
:1005B000DDCFDB018C93DACFCF93DF9300D0CDB7C3
:1005C000DEB780E8809361001092610090EC909318
:1005D000E40097EB9093E50097E09093E6009FE0AE
:1005E0009093E70094E09093810010928500109220
:1005F000840085B91A821982E0908400F090850009
:1006000029E1E21A26E8F20A00E010E0DD24D394A2
:100610000CC0BE016E5F7F4FCE0101960E94AD02FD
:10062000C8010E9468020F5F1F4F80918400909163
:1006300085009701281B390B21333C4050F720914E
:10064000EF002D252093EF007C0129E1E21A26E836
:10065000F20ADFCFAA1BBB1B51E107C0AA1FBB1FB9
:10066000A617B70710F0A61BB70B881F991F5A953E
:10067000A9F780959095BC01CD010895A29FB00186
:10068000B39FC001A39F700D811D1124911DB29FC6
:0E069000700D811D1124911D0895F894FFCF67
:00000001FF
